:020000041000EA
:1000000000B5324B212058609868022188439860DF
:10001000D860186158612E4B002199600221596106
:100020000121F02299502B49196001219960352056
:1000300000F044F80222904214D00621196600F024
:1000400034F8196E01211966002018661A6600F04E
:100050002CF8196E196E196E052000F02FF8012189
:100060000842F9D1002199601B49196000215960AB
:100070001A491B48016001219960EB211966A021F2
:10008000196600F012F800219960164914480160C1
:100090000121996001BC002800D000471248134993
:1000A000086003C880F30888084703B5996A0420EC
:1000B0000142FBD001200142F8D103BD02B5186610
:1000C0001866FFF7F2FF186E186E02BD00000240BE
:1000D000000000180000070000035F00212200005C
:1000E000F4000018222000A00001001008ED00E03C
:1000F00000000000000000000000000074B24E7A12
:1001000000200420F7010010C3010010C5010010F9
:10011000C1010010C1010010C1010010C101001097
:10012000C1010010C1010010C1010010C701001081
:10013000C1010010C1010010C9010010CB01001065
:10014000CD010010CD010010CD010010CD01001037
:10015000CD010010CD010010CD010010CD01001027
:10016000CD010010CD010010CD010010CD01001017
:10017000CD010010CD010010CD010010CD01001007
:10018000CD010010CD010010CD010010CD010010F7
:10019000CD010010CD010010CD010010CD010010E7
:1001A000CD010010CD010010CD010010CD010010D7
:1001B000CD010010CD010010CD010010CD010010C7
:1001C00000BE00BE00BE00BE00BE00BEEFF3058054
:1001D000103800BEF2EB887164FA051084FA05103D
:1001E0003402001090A31AE700201F49086006C8D7
:1001F00081F3088810471D48006800282FD10DA4FE
:100200000ECC002902D000F012F8F9E71849194A7B
:10021000002000E001C19142FCD1174988471749ED
:1002200088471749884700BEFDE701C901C29A42C5
:10023000FBD3704784FA0510C0000020581B002033
:100240001C15061000000420000004201C150610D8
:10025000001004200010042000000000704709482E
:1002600014F04CFC0047000008ED00E0000000D056
:10027000581B0020F03E0020B1A201104D050010D7
:10028000D9A301105756000006005250ABB360537B
:1002900030F8051006005250861C030240F8051085
:1002A000060052505422A29D4CF8051005005250F1
:1002B000DE65F4681C150610F8B5C04610B5064C8E
:1002C0002378002B07D1054B002B02D0044800E017
:1002D00000BF0123237010BDC01D002000000000DE
:1002E00078FC0110044B10B5002B03D003490448DF
:1002F00000E000BF10BDC04600000000C41D00208B
:1003000078FC011010B582B0042806D11378602B58
:100310001AD0B72B07D0052B01D002B010BD002298
:10032000104B1A60F9E7104B104918681BF03DFF9D
:100330001BF0C8FF0E4C0F4B2080220003211888B1
:10034000022302F0CDFCE8E79378022BE5D1684662
:100350000FF038F868460EF08BF8010006481CF0E4
:1003600015FADAE77C390020983C00200000C842EA
:10037000C63E0020C03E002078FC011010B50400ED
:1003800004290BD00A4B1B68002B01D1002010BDA3
:10039000084B20001C8002F08BFCF7E7002102983C
:1003A0000DF04EFE431E5A425341014A1360EBE7E3
:1003B0007C390020C03E0020F0B583B008A8068834
:1003C00015001C000020032901D003B0F0BD084B2C
:1003D000084918681BF0E9FE1BF074FF064F230064
:1003E00038802A0002213800009601F0CDFBECE7AE
:1003F000983C00200000C842C63E0020174A70B555
:100400001368174D01330400280013601EF0ACFB85
:1004100028001EF023FD28001EF066FD28001EF0B7
:10042000F7FD104B1860104B1B68002B10D10F4BC1
:1004300000201A6851425141C9B2196014F00AFAF9
:10044000322120000DF09EFD20000DF0A7FD70BDB3
:10045000074B188802F02CFCE9E7C0461025002065
:1004600088390020983C00207C390020CC110020E5
:10047000C03E002010B50420A2B019F0ABF8052052
:1004800019F0A8F80321042019F004F8032105202D
:1004900019F000F800220121042019F013F80022BD
:1004A0000121052019F00EF8254C682268462549DF
:1004B0001EF0A0FA8822694620001BF061FF200090
:1004C0001EF0A6FA002808D11F4C20001CF0BCF832
:1004D000FA20400012F0B8FFF7E7200003211EF0D9
:1004E00019FC200003211EF061FC200001211EF0F8
:1004F000A9FC200001211EF0ADFC200001211EF00E
:10050000A5FC200000211EF0FFFD200000211EF0B0
:100510009FFD200000211EF0C9FD200002211EF0D9
:1005200023FE200005211EF02FFE200004211EF0D6
:100530003BFE022120001EF047FE22B010BDC04647
:1005400088390020F01200209CFC011030B587B0E3
:100550001CF028F914F08EF9041E3CD111F030FF84
:1005600005F058FEFFF786FF1E4D1F4845600EF050
:100570005FFE280002F096FB1C4D1D4B3221280027
:10058000AB600DF0FFFC28000DF008FD04AD194A2A
:1005900019491A4802F05AFB0622002128001BF0D4
:1005A000E9FEC82107238900002208000193029474
:1005B0000023009506F024FB1149132011F018FBCD
:1005C000012011F069FB012011F046FA0DF0F6FC54
:1005D000200007B030BD01240A481CF035F8644201
:1005E000F6E7C0460503001098310020F8340020DB
:1005F000FD0300107D030010B9030010D0FC0110B2
:10060000B8110020B8FC011010B50400D3880129EE
:1006100015D11940DA0601D5022211431A0616D562
:1006200000201B0B3ED1A37A002B2BD102293CD0FA
:1006300003293FD0012301292BD0002010BD5905EB
:10064000C90F1A0501D5022211439A06E8D4180BE6
:1006500017D1022930D00329EFD1637A002B29D09A
:100660000020237A002B20D00028E7D0E279002A4E
:1006700016D0002382425B4158420B2398430C3032
:10068000DCE701300229ECD0002303290FD0012937
:10069000D3D10028D2D0E279002A01D0002BE8D0B3
:1006A0000F20CBE70133D8B2BDE70520C6E7637A58
:1006B000002BD6D10820C1E7207A431E984104239D
:1006C000404298430530B9E710B5002104000068A6
:1006D0000DF0B6FCA080002806D1E0802081E0600B
:1006E00020826061206010BD022120680DF0A8FC0E
:1006F0000421E08020680DF0A3FC2368A1889A1DE6
:10070000E260E2882081920509D50A001800163AB5
:1007100092B216305B18606122822360E3E70A0020
:100720001800083A92B20830F4E7C04610B5CA88FB
:1007300004005305DB0F110501D502210B4391067F
:1007400023D4100B09D00130022B0ED00022032B32
:1007500008D0012B27D0002010BD022B2ED0002066
:10076000032BF9D1637A002B30D0237A002B23D0CE
:100770000028F1D0E379002B1CD0002283425241A3
:100780000B23504298430C30E6E70020120B00D0B8
:10079000501CA27A002AD7D1022B0DD0032B15D0E2
:1007A0000122012BD7D10028D6D0E379002B01D02C
:1007B000002AE2D00F20CFE70520CDE7207A431EA4
:1007C00098410423404298430530C5E70820C3E719
:1007D00070B503890C00002B22D0C3889B0517D568
:1007E000C5680C2228000F491FF0B6F9002817D160
:1007F0002A00AB7B0E32002B11D15378002B0ED187
:100800000C2128000DF01CFC001B4342584106E05F
:100810000021C0680DF014FC201A4342584170BDFD
:100820000020FCE7C000021010B50389002B1FD088
:10083000C3889B0512D5C4680C2220000D491FF007
:100840008BF9002814D12200A37B0E32002B0ED18D
:100850005378002B0BD10C21200001E00021C0684F
:100860000DF0EEFB044B9C4660444342584110BDE2
:100870000020FCE7C000021000D8FFFF10B503897C
:10088000002B1FD0C3889B0512D5C4680C22200002
:100890000D491FF061F9002814D12200A37B0E320C
:1008A000002B0ED15378002B0BD10C21200001E03E
:1008B0000021C0680DF0C4FB044B9C4660444342D9
:1008C000584110BD0020FCE7C0000210FFD7FFFF19
:1008D000F8B5040080260D001C4BB6001868206097
:1008E00000280DD000210DF0ABFBA080002808D11E
:1008F000E0802081E0602082606120606842684181
:10090000F8BD022120680DF09BFB0421E0802068E7
:100910000DF096FB030020812068A188821DE26013
:10092000E28832420CD10A000700083A92B2083736
:1009300040186761228220609D42D1D10120DFE70B
:100940000A000700163A92B21637F1E79C220020FF
:1009500010B5040082B0002808D00378012B07D01E
:10096000EA230220084A094911F090FC02B010BDA8
:10097000ED230090044A0120054911F087FC054B46
:1009800001341C60F2E7C046FCFC011008FD0110B8
:1009900064FD01109C220020014B18607047C04686
:1009A000A4220020014B18607047C046B0220020EE
:1009B000002310B582B0008801930093034B0322FB
:1009C0001C6800210023A04702B010BDB022002007
:1009D000F8B51C001B230700069D16002B700A00AB
:1009E000280001210DF040FB7988200003390DF02B
:1009F000E9FB033500043100020C033428001BF02E
:100A0000BFFCA0B2F8BDC046F0B5DE46574645462D
:100A10004E46E0B59B46438893B004930B788046DE
:100A20008A461400522B03D8BF499A008A58974629
:100A3000594601224B700A705846002202210DF0DF
:100A400013FB06235A4613710527380013B0F0BC78
:100A5000BB46B246A946A046F0BD032C01D100F02A
:100A600013FC01235A4613700133537002210022F4
:100A700058460DF0F9FA04235A4605271371E4E7A6
:100A8000052C01D000F03DFE012150460DF0D8FAB2
:100A90000321050050460DF0D3FAB223824601909F
:100AA000A24A0120A2490095FF3311F0EFFB554502
:100AB00001D900F0C4FC002D01D100F0C0FC0022DF
:100AC000904680229200012791469A4B0CAC1B68FD
:100AD0000C93002B01D100F03DFE2000FFF7F4FD48
:100AE0002289002A01D100F035FE924501D200F0A2
:100AF00031FE954227D849464846E38819400342CB
:100B000001D000F02BFD062302260220012F01D880
:100B100000F02BFD804501D000F0C6FDBB1C9B19E9
:100B20000499994201D200F0BFFD390058460DF0FA
:100B30009BFA5B460237BFB2D8193200E1681BF05E
:100B40001FFC4744BFB22368C3E7062C01D800F05E
:100B500065FE012150460DF073FA03210600504650
:100B60000DF06EFA05210700059050460DF068FA69
:100B7000554686236D4A073C6F4906900735A4B257
:100B800002900197012000969B00904608950794DB
:100B900011F07CFB210028000DF022FBBE4201D9A0
:100BA00000F045FC002E01D100F041FC614B1B68B8
:100BB0000C93002B01D100F01DFF00239A465F4BE0
:100BC000012799463300002556460CAC9A461CE096
:100BD0009A4515D8059A9A4201D200F04FFD002E91
:100BE00001D000F0DDFC1D0020000699FFF7F0FDAC
:100BF000002805D0238A079A9A4201D100F0CDFD42
:100C00002368002B01D100F039FD2000FFF75CFDC7
:100C10002389002BDCD1002E01D000F06BFC0025D5
:100C2000EEE7072C01D100F0A3FD152C00D088E3DE
:100C3000102310240693012150460DF001FA0321E0
:100C40000500059050460DF0FBF9052252449146EF
:100C500006003B4901903B4B0120344A009511F0BE
:100C600015FB210048460DF0BBFAB54201D900F052
:100C7000E1FD002D01D100F0DDFD00220792089278
:100C8000049A0127043A92B20A9202320B92524617
:100C9000284B09921B680C930CAC002B01D100F07F
:100CA00019FD2000FFF710FD2389002B01D100F072
:100CB00011FD9E4201D200F00DFD059A9A4201D924
:100CC00000F011FC069B022B01D100F05AFCE588D4
:100CD000AB0501D500F0BAFC0C2248461A491EF0BB
:100CE0003BFF00281DD1099B1A00DB7C1332002B2F
:100CF00017D15378002B14D10C2148460DF0A0F9E0
:100D000000210500E0680DF09BF9854209D1E588D6
:100D1000AB0701D500F050FC079B002B01D12389C4
:100D200007932368B8E7C04674FF0110FCFC01106C
:100D30007CFD01109C220020B4FD011004FE011076
:100D400050FE01105A020000C0000210032C01D016
:100D500000F0E6FC012150460DF072F9B7230500C2
:100D60000090D54A0120D5499B0011F08FFA002D43
:100D700000D157E30CAC29002000FFF7A9FD0028A3
:100D800000D14FE3E38899469B0701D400F004FEAD
:100D900021004046FFF7CAFC061E01D000F0C1FD4D
:100DA00080274B467F003B4201D100F09CFD43462B
:100DB0001888C34B2189994600964E460023366811
:100DC0000022B047FE23060020821B02984201D970
:100DD00000F0A7FD5B465D1C049BE288013B9BB2D3
:100DE0003A4201D100F089FD4246218910880093E2
:100DF0004B4600221C682B00A0470B235A460130AB
:100E000087B2137021E6052C01D000F081FC01218E
:100E100050460DF015F90321060050460DF010F96B
:100E2000A84B05000190A44A0120A749009611F0A3
:100E30002DFA002E00D1EDE20CAC31002000FFF7BE
:100E400047FD002800D1E5E2E788BB0701D400F0A8
:100E500093FD21004046FFF769FC8146002801D040
:100E600000F0A1FDFB0501D400F070FD4346188899
:100E70004B4621890093924B2A001F680023B847F4
:100E800081462082FE231B02994501D900F08BFD8B
:100E90004D4501D900F0E3FD0D235A46012713709B
:100EA0004D4500D3D1E55E46049BE288013B013607
:100EB0009BB2D20501D400F0BEFD424621891088C4
:100EC00000937F4B2A001C683300A047013087B293
:100ED000BBE5042C00D882E201231F0027402342F7
:100EE00000D17CE2013C6408A3B20893534601336D
:100EF0000793D62300949B0001206F4A734911F099
:100F0000C5F900239A466E4B564699465B460CAC93
:100F10000693079871000DF093F80590002801D111
:100F200000F0CBFC6A4B05001B682360002B09D046
:100F30002000FFF7C9FB2389AB4200D190E2236870
:100F4000002BF5D1069B01249B461C705A460E23AC
:100F500053702A00022158460DF086F85B461C713A
:100F600072E5072C01D100F0FEFB152C00D0E2E168
:100F7000102310240893012150460DF061F803213D
:100F8000804650460DF05CF8052353449946049B77
:100F90000500029343464F490790019000930120BA
:100FA0004D4B454A11F072F9210048460DF018F9F1
:100FB000A84501D900F0E9FB4346002B01D100F020
:100FC000E4FB089B022B01D100F00DFD0C224846EA
:100FD00042491EF0C1FD002801D000F038FC534604
:100FE0005246DB7C1332002B01D000F030FC5378EA
:100FF000002B01D000F02BFC0C2148460DF020F80E
:101000000300374A944663449BB2012B01D900F098
:101010001EFC2F4B1B680C93002B01D100F048FDE8
:101020000022002306920592524600260127002541
:101030009A460CAC09922000FFF746FB2389002B4F
:1010400000D153E298452CD8079A9A422CD3002D10
:1010500000D134E12000FFF7E7FB002800D18CE34A
:1010600039005846059A0CF0FFFFB91C320058466B
:1010700089B20CF0F9FF5B46069E0437BFB2351FFC
:10108000D8192A0051467F191BF07AF9BFB2049A89
:10109000BB199A4208DB00252689002E00D00FE1FB
:1010A00000262368002BC6D1012F01D100F000FDDE
:1010B00011235A461370C8E4FCFC01108CFE011089
:1010C000A422002016030000B4FE0110ECFE011063
:1010D0009C22002020FF0110BE030000C00002106F
:1010E00000D8FFFF022C00D892E3012150460CF0FB
:1010F000A7FF051E00D178E101000CA8FFF7E8FB6F
:10110000002800D171E1D04B1F689946002F01D112
:1011100000F0B5FC08ABDE8A330700D4C6E3F30564
:1011200000D4C3E3012140460CAAFFF76DFA0490F6
:10113000002801D000F065FC08AB1A8BC34B1A8065
:10114000B30501D400F00EFCC14B049A1A8051463D
:101150004346033CA4B20331188800220194009155
:1011600000232900B847041E01D000F073FC1323AC
:101170005A460127137068E4042C00D854E3012177
:1011800050460CF05DFF0321050050460CF058FF5F
:10119000AD4F06003B68002B00D15FE3002D00D16E
:1011A00033E129000CA8FFF793FB002800D12CE1C4
:1011B00008ABDB8A1A0700D450E3DB0500D44DE30B
:1011C000012140460CAAFFF71FFA8146002801D0F2
:1011D00000F027FC43461888631F9BB201935346D7
:1011E000053300930122330029003F68B847060009
:1011F000072801D100F053FC0D2800D13EE3002860
:1012000000D143E301235A46137015335370022172
:101210002A0058460CF028FF5B4605271E71FFF791
:1012200014FC012C00D876E3874C2568002D00D1F2
:10123000D0E353465B78002B00D1C3E0854E336882
:10124000002B00D172E200244346032218880021BB
:10125000002301940094A8477F4B59461A881C80AC
:1012600001230B70173335784B70346002215846D8
:101270000CF0FAFE5B4605271D71FFF7E6FB022C1A
:1012800065D80027FFF7E1FB012150460CF0D8FE9E
:10129000434699880CF096FF0104090C17200CF0C6
:1012A00097FF4246012393715B4650801C700121D9
:1012B000584652880CF0D8FE0327FFF7C6FB1E00E5
:1012C000089B022B00D1CDE1E3889B0500D587E286
:1012D0000C22484661491EF03FFC002800D0E0E6A1
:1012E000099B1A00DB7C1332002B00D0D9E653781F
:1012F000002B00D0D5E60C2148460CF0A1FE0021C1
:101300000A90E0680CF09CFE0A9B181A4342584170
:10131000002800D1C5E6238A04339BB2012F00D8F0
:1013200056E2069A934200D0C2E62389012505932E
:1013300063699A46B5E601235A4613700F33FFF7E7
:1013400094FB01235A4613700733FFF78EFB0121EC
:1013500050460CF075FE3C4E05003368002B90D0D3
:1013600000288ED001000CA8FFF7B2FA002888D020
:1013700008ABDF8A82233A005B001A409A4200D011
:101380007FE7012140460CAAFFF73EF9002800D074
:1013900077E708AB1A8B2D4B1A80BB0500D4A1E36D
:1013A0002B4B033C1880434618885346A4B20333A2
:1013B000009301940023002229003468A0470027ED
:1013C000FFF743FB008803220193009300210023D1
:1013D000A84719235A4601271370FFF736FB01234C
:1013E0005A4613700D33FFF740FB5B4601241C7017
:1013F00012235A4653702A00022158460CF034FE3C
:101400005B4605271C71FFF720FB5B4601241C701F
:101410001623EEE75B4601245A461C700C235370DA
:101420003200E9E75B4601241C700A23E1E75B46D2
:1014300001245A461C70062353703200DCE75B46D9
:1014400001241C700423D4E7B0220020BA3E0020FF
:10145000BC3E0020A0220020BE3E0020C0000210A2
:101460000595E3889A469B0700D430E22100404668
:10147000FFF75CF9031E00D031E280225200934650
:10148000524659460A4251D0424629004D461088DC
:10149000009300222D68A847FE2320821B02984259
:1014A00000D98FE25946069BE288DD19049BDB1BBD
:1014B0009BB20A4245D042462189108800932B00F6
:1014C0004D4600222D68A8470136089AC719B3B2C5
:1014D000BFB29A4200D91CE5069B9B460F235A4691
:1014E0001370FFF7B2FA2368FFF7D7FB002D00D186
:1014F000D6E5B5E58D2342469B004946012000957F
:1015000010F0C4FE2A003900584602370CF0ACFD3A
:10151000BFB2049A3B1D934200D9AFE00026258953
:10152000002D01D1FFF76CFBFFF75EFBFE23208A45
:101530001B02984200D97BE2069BDD19049BDB1B52
:101540009BB219000CF03EFE82460204616928003D
:10155000120C1AF015FF534698B2B5E71423102663
:101560001020012F01D9FFF7D5FA012F00D03FE15C
:101570004F1EB9415F460131797080460227FFF75F
:10158000CFFA002148460CF05BFD01002000FFF778
:101590001FF9002801D0FFF7BAFB2368FFF77CFB97
:1015A0002000FFF741F90028A4D12000FFF766F9D9
:1015B00000289FD12589B3E721004046FFF7B6F800
:1015C000031E00D07BE2EA0500D4A7E04246218951
:1015D00010880093DF4B00221D680023A84720825B
:1015E000FE231B02984200D975E2831C9BB2012F97
:1015F0005FD9089A9A4200D024E1BB18049A93421A
:1016000000DC01E1022F00D01CE1BD1CADB2AA46F6
:101610000A9B0B9A23825B465A70228939005846EE
:101620000CF022FDE288238ADA44D2052FD5424607
:10163000218910880093C74B00221F685346B84782
:101640000700EF192368BFB2FFF726FB10224946B7
:10165000E0681EF081FA002801D1FFF759FB2368EA
:10166000FFF71AFB002148460CF0EAFC01002000BD
:10167000FFF7AEF8002800D04DE612E55646012FE0
:1016800000D1B7E107235A461370FFF7DEF91900BE
:1016900018000CF097FD0700020461695046120C17
:1016A0001AF06EFEBFB2CCE705235A461370FFF75F
:1016B000CCF9012F00D0A2E05A46089353700423BE
:1016C0000430049A80B29A46042501378242A4D29B
:1016D00002279DE7012F00D9B4E0079B002B00D023
:1016E00024E15A460123137007335370059A0221EF
:1016F00058460CF0B9FC0A235A4605271371FFF728
:10170000A4F95A460123042413705470002273E68E
:1017100001235A4613700B33FFF7A7F9208A5FE7BE
:1017200001235A4613700933FFF79FF900880422FA
:10173000019300930021A847031E306000D0D6E13A
:10174000424610880193009302220023002124685E
:10175000A0473EE6012FA7D15B465A461F700423DF
:1017600053702A00C3E7022302240893FFF703FC07
:10177000022302240693FFF75EFA2000FFF77EF8AB
:10178000002800D06CE4268987E45B4601245A4691
:101790001C701023537042462EE6616908981EF0B3
:1017A000DBF9002801D0FFF72BFA2389424600938A
:1017B000912369499B00013010F068FD39005846BB
:1017C000228902370CF050FC0126BFB2FFF718FA4D
:1017D000012F00D005E15A46069353700137A4E566
:1017E00010224946E0681EF0B7F9434258418FE5A0
:1017F00043460233464600279BB2FFF791F9049B0C
:10180000089A934200D200E7BD1CADB2AA4604E795
:1018100001235A4613701133FFF727F901235A4663
:1018200013700533FFF721F901235A46137015335E
:10183000FFF71BF95B4601245A461C7008235370BE
:10184000059AD9E509235A461370FFF7FEF85A4660
:1018500001231024137054704246CDE55A460123EB
:101860001370153353702A00022158460CF0FCFB0C
:1018700003235A4605271371FFF7E7F8374E3378ED
:101880000D2B03D00D233360354B1D8004992000B0
:101890000CF098FC0204120C514658461AF070FDE8
:1018A00017235A4627001370FFF7CFF85A46012333
:1018B0001370113353702A00D6E7069B01249B4610
:1018C0001C705A460E2353700022FFF743FB069B01
:1018D00002269B4601235A4613700D3396E4069B5D
:1018E00006009B46F6E7FE23268A1B029E4218D876
:1018F0005B465D1C049B013B9BB2190030000CF061
:1019000061FC0600020461692800120C1AF038FD1F
:10191000B0B2FFF772FA01235A4613701733FFF77C
:10192000A4F801235A46137009336FE45A46012381
:101930001370073353700221079A58460CF094FB3A
:1019400002235A4605271371FFF77FF8238A994629
:10195000FFF798FAA422002028FE0110A022002000
:10196000BE3E002000210F980CF06AFB614B1880EE
:101970004B461F68FFF7EBFB5A46012313700B33EE
:1019800053703200022158460CF06EFB02235A4677
:1019900005271371FFF759F85A46012313700933CD
:1019A00053702A00EEE75A46012313700B3353702D
:1019B0003200022158460CF057FB5B464A461A712A
:1019C000FFF742F8069B059D9B46C6B2002E00D14C
:1019D00084E57FE75A4601231370173353700022C2
:1019E00042E70027A1E4002148460CF029FB030050
:1019F000FFF707FB5A46012313700533537032007B
:101A000075E65A46012313701133537002212A00E0
:101A100058460CF029FB5B46049A05271A71FFF71C
:101A200014F85A4601231370153353702A00C0E787
:101A3000069B9B46C9E74A461900501B0CF0C2FBA7
:101A40000500020461693000120C1AF099FCA8B27A
:101A5000FFF73CFA01235A4613701133CAE45A4681
:101A6000012313700B3353700221320058460CF0DF
:101A7000FBFA07235A4605271371FEF7E6FF5A467D
:101A8000012313701133537002212A0058460CF0C1
:101A9000EBFA03235A4605371371FEF7D6FF164BB0
:101AA0001A68002A00D0F1E61860144B1D80EDE69C
:101AB0005A46012313700F335370424617E6050050
:101AC000012F00D9BEE65A46012313700733537025
:101AD000059AFFF7CBFB012F00D9B3E6C5B2002D65
:101AE000F1D1FAE500210F980CF0AAFA58E4256824
:101AF000FFF7A9FBBC3E0020A0220020BE3E002034
:101B0000F0B5C6461C4F04003B8800B5834221D087
:101B100000281BD0194B1E68002E17D00021300062
:101B20000CF08EFA051E11D0022130000CF088FA5C
:101B30000421804630000CF083FA84421AD14346D7
:101B40003C809B050FD500220D4B1A80002080BCE5
:101B5000B846F0BD0A4B18880A4B9C466044434285
:101B60005841C0B2F3E70021B01D0CF069FA044BF4
:101B70001880F1E77619CFE7BA3E00209C220020BA
:101B8000BC3E0020FED6FFFFF8B5040008001D0093
:101B900006AB160007001988002D02D000279042DE
:101BA00001D23800F8BD801A0CF00CFB87B200049B
:101BB000020CA11928001AF0E3FBF2E7F8B54E4633
:101BC0004546DE4657461400E0B50D001E000428C9
:101BD00015D008280DD112780023D10741D4324AFC
:101BE000DB009F58002F04D033002200290008207A
:101BF000B847F0BCBB46B246A946A046F8BD13782C
:101C0000792BF6D10023294A99461370264BB24608
:101C10009846274B0E009B4623004C4699465B4650
:101C20001F7801234246E7191F40FB00D558002DBD
:101C300013D043441A79002A0FD0002231001A71C0
:101C4000042053464A46A847012301371F405B46FC
:101C50001F700DF04DF9002809D0012C07D0012488
:101C6000DDE73F210A401C3991425B41B7E70F4B4A
:101C70001B78002BBDD143461B68002B0BD043467D
:101C80001B79002B07D00123084A04210020137080
:101C900010F0C2FBADE743469B68002BA9D043463A
:101CA0001B7B002BA5D0EEE7783C0020D13E002026
:101CB000CA3E002010B5034B04211860024810F002
:101CC000B5FE10BD783C0020BD1B001010B50421EE
:101CD00010F0C0FB10BDC0460122064B10B51A71B2
:101CE000054B1978002900D010BD04311A7010F08E
:101CF00093FBF9E7783C0020D13E002070B50D4BF6
:101D000004009E680D0082B0002E11D06A460A4B76
:101D100002211380020068460CF0A6F92A00042173
:101D200068460CF0A1F906236A4621000420B0475A
:101D300002B070BD783C0020B504000010B5074B20
:101D400082B01C68002C06D0B72301AA13800021A2
:101D50000420B53BA04702B010BDC0468C22002035
:101D6000F0B54E4645465746DE46E0B595B0984636
:101D70001EAB150004CB06001B88924699460591C0
:101D8000032D20D9042D20D111AC2000B4490BF033
:101D900045FF002720000BF047FF002800D1F6E0A8
:101DA00020000BF057FFC568002DF3D0002304225C
:101DB0000021300001970097A847C3B2002BE9D05B
:101DC000FF23184028E0012D2DD80598FFF798FE35
:101DD00011AC002853D12000A1490BF01FFF059F33
:101DE00020000BF021FF002800D1E0E020000BF0E4
:101DF00031FF8388BB42F3D8C388BB42F0D3C468A9
:101E00000597002C39D04B46019353462A00009386
:101E1000300043460599A04715B0F0BCBB46B2461A
:101E2000A946A046F0BD11AC20008D490BF0F6FE8E
:101E30000023984620000BF0F7FE002812D0200067
:101E40000BF008FFC768002FF4D043462A00019327
:101E50000093002100233000B84720000BF0E4FE7F
:101E60000028ECD17F4B1C68002CD5D0019000904D
:101E700000232A0000213000A0470020CCE7434681
:101E8000002BA8D14B46022BA5D1002150460CF0C7
:101E9000D7F80700099030000CF080FE00289AD097
:101EA0000300AD33FF339B68AF30FF3006930CF077
:101EB000DFFA069B0599039302906B4B0191012079
:101EC0006A4A6B49009710F0E1F9069B002B00DA93
:101ED00081E7434610A90FA80F930CF09FF80F9BC2
:101EE000002B00D177E7002205990D958B46150050
:101EF0000A920B92079208920C965E4E1F682E4330
:101F00000823220031001098B847082853D12368CD
:101F1000089A9A4200D20893079A002A02D00B9A94
:101F2000934201D207960B93E379069A9A4243D1E2
:101F3000A3885B4540D15B46099AB34606950C9E43
:101F40000D9D0593002A3CD0A37993427ED0089B37
:101F5000A27101332360069B0120444A4649009345
:101F6000464B10F093F90F9B22005B6859461F0007
:101F700010980823B847002800D12CE7069B0220C0
:101F800000933A4A3E4B3F4910F080F923E7354B26
:101F90001C68002C00D170E70023019000900422FF
:101FA00000213000A0470300FF20184034E72D4BEC
:101FB00005971C6825E70A960135142D0FD00F9B55
:101FC0009BE7069B01200093284A2F4B2F4910F0D6
:101FD0005DF90F9B59469B6810989847FBE65B4656
:101FE0000593079B0A9F0193F223294901201F4A69
:101FF00000979B000C9E0D9D10F048F9099900294F
:1020000000D1E8E6002F04D1079B002B00D1E2E6C7
:102010000A93089B220001331193069B0A99E371EE
:10202000059B1098A380099BA3710F9B5B689B463F
:102030000823D847002800D1CDE6142302200093BE
:102040000A4A144B0F4910F021F9C4E6069B0120FF
:102050000093064A104B114910F018F9BBE6C04630
:10206000443A0020AC2200208A030000D000021075
:10207000E00002100043544250010210BB03000074
:10208000BE0300006C010210C203000090010210A8
:10209000AC010210DF030000B603000030010210A3
:1020A000F0B54746CE4680B587B01F000EAB1B8803
:1020B00005000C0003A81649160098460BF0AEFD6B
:1020C00003A80BF0B1FD002819D003A80BF0C2FD46
:1020D0008388A342F4D8C388A342F1D38368994686
:1020E0004B46002B11D043463200009321003B00A9
:1020F0002800C84707B0C0BCB946B046F0BD054B84
:102100001B6899464B46002BEDD10020F2E7C046F4
:10211000443A0020A8220020F0B585B005000E004A
:1021200001A8174914000BF079FD01A80BF07CFD04
:10213000002822D001A80BF08DFD8388A342F4D89B
:10214000C388A342F1D30769002F14D06A46B6238F
:102150001371B13B53710321957101A832000BF04B
:1021600083FF2200052101A80BF07EFF0723002139
:10217000042001AAB84705B0F0BD024B1F68E3E791
:10218000443A00208C220020F0B54E464546DE46FB
:102190005746E0B50400160008001D008FB0042C5F
:1021A00041D0082C38D10CF0F9FC041E34D03F2269
:1021B00033781A40232A00D89EE15A062CD4522B99
:1021C00000D1E5E182225200954200D3B8E1D62742
:1021D0007F00E25D002A00D0A9E10123E355AC3382
:1021E000FF339846A044434620002A001D85D02591
:1021F000D7303100FF306D001AF0C2F8605B04F098
:102200000DFD002808D143465B7B002B04D103332E
:10221000E355605BFFF760FD0FB0F0BCBB46B24614
:10222000A946A046F0BD1378792B0DD0B52BF3D17C
:102230000CF0B4FC041EEFD0042130000BF000FFC2
:10224000A134FF346080E7E7C74B012600249A469B
:102250000027A346C54B1D8808A80CF095FCC24B6F
:10226000984608A80BF0E0FC002821D008A80BF045
:10227000F1FC0400012F59D0022F4FD1CD30FF3097
:102280000BF08CFC01235840C0B245451BD0002800
:1022900003D05B46002B00D182E0D0235B00E35AE1
:1022A000AB42DED108A8B04D0BF0BEFC0028DDD15A
:1022B000002E00D175E15B46002B00D107E1002321
:1022C000A94D9B46C8E70028CBD0002E00D1FFE0E7
:1022D000022F67D12300AD33FF331E6AE6235B0074
:1022E0009946A144310048460BF07EFCB068736803
:1022F0009847D0235B00E35A18009A46FFF7E6FCA4
:10230000431E9841C6B248460BF048FC0028A8D1AD
:102310005B46002BC6D1A346934DA2E7D6235B00B4
:10232000C05C033843425841C0B2AEE7E8235B00CB
:102330009946814448460BF031FC00282CD1D62325
:102340005B009C46A44463460593DB89002B23D1A4
:1023500045459ED1002E00D1BAE0059B48465E6AF5
:1023600031000BF041FCB06873689847D0235B00E4
:10237000E35A18009A46FFF7A9FC431E9841C6B2DB
:1023800048460BF00BFC002800D06AE7059BDB8970
:10239000002B00D065E7BBE7454500D161E77CE74E
:1023A000A3467AE710F060F810F058F82300AD3338
:1023B000FF331A8DD0235B0099462100A144D73109
:1023C00003008246FF314846FEF71EFB0600032845
:1023D00023D953461B78012B28D0D62300225B003B
:1023E000E254D0235B00E05A3200042110F044F89C
:1023F00053461B78032B2CD0D0235B00E35A1800E4
:102400009A46FFF763FC431E9841D6235B00E35CCA
:10241000C6B2032B00D17BE723E7D62300225B0063
:10242000E2540028DDD110F023F8E5E753461B798C
:10243000082BD2D14B461B7A002BCED0D0235B0089
:10244000E05A0FF033FD002800D185E00128EAD0E2
:10245000C3E79E33FF33E35A06AE9A464B465B888A
:1024600052469946424B0221338030000BF0FCFD6E
:102470004A46042130000BF0F7FD49465046FFF76D
:102480003DFC3C4B1B689946002B04D006233200D0
:1024900000210420C84738490BA80BF0BFFBA14618
:1024A0000BA80BF0C1FB00280FD00BA80BF0D2FB40
:1024B0000469002CF4D00420062332000021A04738
:1024C0000BA80BF0B1FB0028EFD14C4694E7002499
:1024D000254B9A4502D05246244B1A800137FFB251
:1024E000032F00D0B5E6002C00D195E6D0235B0089
:1024F000E05AFFF7F1FB8FE61E2B00D05FE60700E6
:10250000AD37FF37FA89002A00D15BE6BD30D02510
:10251000FF300BF04BFD00236D00FA890020615B5A
:10252000FB81FFF7F9FD605BFFF7D6FB74E60192D4
:1025300000930120114B124A12490FF0A7FE6BE6DF
:102540000422FF320292009301200F4B0C4A0F49E4
:1025500001950FF09BFE5FE60FF08AFFD0235B0032
:10256000E05A03F0DDFE47E7FFFF0000D011002036
:10257000B50400008C220020443A00204F030000E4
:10258000D0000210280202103D030000E0010210FA
:102590002000A13000232A003100FF30FEF734FA7A
:1025A0003AE65C4694E7C046F0B54E464546DE4600
:1025B0005746E0B515001E0091B0042806D011B0B2
:1025C000F0BCBB46B246A946A046F0BD1378D52B59
:1025D000F5D8C72B07D93833DBB20D2BEFD8D94A42
:1025E0009B00D3589F46302B00D121E100D8A6E0B4
:1025F0003E2B00D019E19378012BE0D1042110008B
:102600000BF01EFD04000CF0C9FA82460028D6D05B
:10261000D622EB79520052445370D72328005B0036
:10262000534419000830934605930BF0ADFDD023B9
:1026300052465B00D4525146002257460C33CA54CE
:10264000A137963BFF3BFF377B8010F0E7F98223F1
:102650005B00984200D367E2B88000239846524658
:102660004146FB71A933FF33D152200003F0D8FE5D
:102670005B469860DC23524641465B00D152B24B28
:102680001C689946002C03D033002A000420A04780
:10269000AE4B0DAC1900200098460BF0BFFA20009D
:1026A0000BF0C2FA00280FD020000BF0D3FA076914
:1026B000002FF4D0042033002A000021B847200066
:1026C0000BF0B2FA0028EFD1B3230AAF3B70AA3B5C
:1026D0007B705B465B782321BB7002AB9C46059800
:1026E00061440BF051FDD02352465B00D25A0921C0
:1026F00038000BF0B9FC4B461D68002D04D00B23AD
:102700003A0000210420A847414620000BF086FA39
:1027100020000BF089FA002800D150E720000BF0D0
:1027200099FA0569002DF3D004200B233A0000210B
:10273000A84720000BF078FA0028EFD13FE7052BDF
:1027400000D0BFE0032110000BF07AFC80460CF0B3
:1027500025FA041E00D132E7A130FF30FEF728F938
:10276000D0235B009946270000234A46AD37A35289
:10277000FF370C327B73A3549A46FB89002B00D0A1
:10278000C4E1AD230AAF9B003B80424602213800E2
:102790000BF06AFC6C4B1C689946002C04D0042397
:1027A0003A0000210420A047684B0DAC190020001E
:1027B0009846BA460BF032FA20000BF035FA0028A2
:1027C0000FD020000BF046FA0769002FF4D0042048
:1027D000042352460021B84720000BF025FA0028B8
:1027E000EFD14B461F68002F04D033002A00002190
:1027F0000430B847414620000BF010FA20000BF0DF
:1028000013FA002800D1DAE620000BF023FA07695A
:10281000002FF3D0042033002A000021B847200005
:102820000BF002FA0028EFD1C9E6592B00D0C6E61A
:10283000032128000BF004FC06000CF0AFF9041E85
:1028400000D1BCE630000FF081FA032800D0B6E6D4
:10285000270030000FF0B0FAA137FF37F8713000D1
:102860000FF0D0FA387230000FF0F6FA384BB87229
:1028700002909A463B7A52460193FB7901200093DD
:10288000B72334495B000FF001FD2B78082B00D1F2
:102890004EE1D6256D00635D012B00D08FE6D0267A
:1028A0007600A05B04F0BAF9002800D087E663192F
:1028B0005B7B002B00D082E603336355A05BFFF700
:1028C0000BFA7CE6082BB3D079E6022128000BF046
:1028D000B7FB0CF063F9041E00D170E6D6235B0051
:1028E000994681444A46AC3BFF3B5373184B012049
:1028F0009A46DD2352465B0017490FF0C7FC4B4652
:102900009B689846002B00DA59E62000AF30FF3074
:102910000BF0AEFD43460193FA2352460F49009057
:102920009B0001200FF0B2FC00230AA909A809931B
:102930000BF074FB099B002B31D0094A002593460C
:102940000DAC10E0040402108C220020443A002058
:10295000D000021064020210B0030210CC03021077
:1029600000435442099B5E462E431F682200082301
:1029700031000A98B84708280ED1E37998450BD161
:10298000A54BA6490738524600950FF07FFC099BDE
:1029900031009B680A9898470135142DE2D1012334
:1029A0004A465B4293600AE6022128000BF048FB8E
:1029B0000CF0F4F8041E00D101E6CB2301205B00EB
:1029C000974A98490FF062FC0123AD34FF3423731A
:1029D000F5E5022128000BF033FB0CF0DFF8041EB4
:1029E00000D1ECE5D423D6265B0001208C4A8E4929
:1029F0000FF04CFC00237600A5192B73013BAB6054
:102A0000A35D012B00D0DAE5D0277F00E05B04F066
:102A100005F9002800D0D2E56B7B002B00D0CEE575
:102A20000333A355E05BFFF757F9C8E502212800FF
:102A30000BF006FB0CF0B2F8041E00D1BFE5D62760
:102A400000237F00C619122128003373D0250BF014
:102A5000F7FA6D002B00B060714A012073490FF046
:102A600015FCE35D012B00D0A9E5605B04F0D6F80E
:102A7000002800D0A3E5737B002B00D09FE5033333
:102A8000E355605BFFF728F999E5022128000BF078
:102A9000D7FA0CF083F8002800D190E50300EA7A19
:102AA000A133FF335A72D0235B00C05AFFF714F9E9
:102AB00085E5022128000BF0C3FA0CF06FF8041E24
:102AC00000D17CE5D62700237F00C619737312213D
:102AD00028000BF0B5FAB060E35D012B00D06EE585
:102AE000D0256D00C1E7022128000BF0A9FA0CF0F7
:102AF00055F8041E00D162E5D6260023760085191C
:102B00006B73835D012B00D059E57DE72000BD305C
:102B1000FF300BF04BFA5346FA89FB814B4692206B
:102B2000E15AFFF7F9FA2CE60423FF33BB8094E562
:102B30006B79002B00D1ACE62300AD33FF339B68EB
:102B400020009846AF30FF300BF092FC43460090D7
:102B500001935246364B012036490FF097FB43460E
:102B6000002B00DA95E6002509A908A808950BF0C6
:102B700055FA089BAB4200D18BE60AAF04E0013561
:102B8000142D00D185E6089B2B491E683A000823C6
:102B900009982943B0470828F1D1FB799845EED12F
:102BA00007AB18000021BA799B46BE880BF05CFA8F
:102BB0000DAB1800214999460BF030F848460BF050
:102BC00033F8002824D048460BF044F88388B342F9
:102BD000F4D8C388B342F1D3C36899464B46002B5F
:102BE000CDD0BB79524602930120154B1549019671
:102BF00000950FF04BFBD0235B00E05A9F3BFF3B5F
:102C000001935B460093002331001A00C847B6E7E2
:102C10000D4B1B689946E1E7F90300009001021093
:102C2000D000021028030210840302105403021083
:102C300004040000AC02021000435442443A002055
:102C40001A040000E4020210AC22002070B5040057
:102C50000C4B0D4D19600D480D4B45601A600CF082
:102C6000E7FA0C48456003F0CDFA0B48FFF722F86D
:102C70002000FDF76DFE0948FDF78EFE0848FDF7C0
:102C800091FE70BDA8220020A9250010A0310020CF
:102C9000AC220020C83B002089210010A120001098
:102CA000611D0010014B18607047C0468C22002047
:102CB00070B5094B094D6B600BF070FF041E09D015
:102CC000CD302900FF300AF081FFD0235B00E05AAD
:102CD000FFF702F870BDC0463D1D00109022002095
:102CE000F0B5C64600B582B00E0090461F000BF04E
:102CF00055FF041E1DD0D0256D00405BFEF7E6FF9A
:102D0000002814D00FF0B0FB0FF0A8FB03004246E0
:102D10003100009360193B00FDF75AFE04210200C8
:102D2000605B0FF0A9FB02B080BCB846F0BD572035
:102D3000F9E70220F7E7C046064B10B51B68002BE9
:102D400000D010BD0220044A0449A4330FF09EFABB
:102D5000F7E7C046783900203C0402105004021006
:102D60007047C0461020704770B50B4D04002B5CB7
:102D7000002B0FD0FF23094903401943084B186863
:102D8000084B1B689B6898470023074A2B5513681C
:102D9000013B136070BDC046802E002000445442A9
:102DA0007439002078390020183A0020F0B54E46DA
:102DB0004546DE4657460023E0B501269BB0049306
:102DC000594B76429B46594B89460024B0469A4659
:102DD000574D07900992059608962B5D002B00D160
:102DE00085E0534658461B6852491F6821430BAA89
:102DF0003C230068B847062248460DA91CF0ACFEEB
:102E0000002805D10C9B079A0693934200D10894A1
:102E10000B9B049A9A4200D204934246013268D036
:102E2000B34266D333001E000134102CD5D1434683
:102E3000089E414C0293059B220001930120E82348
:102E40003E4900960FF022FA731C54D00027F72356
:102E500022003B49012000960FF018FA48460BF07B
:102E600007FB079B22003749019000930120FB23B9
:102E70000FF00CFA099B3448190098460BF00AFA37
:102E80002022002112A819F075FA079B0622494654
:102E90000DA80C9319F074FA06AB9C46222041460B
:102EA0001022604419F06CFA049B089A01330B93CA
:102EB000FF232049134019431B4B0BAA18681B4BD7
:102EC0001B685B6898463C23C047002821D101233A
:102ED000AB55002F03D01D4A1368013313600898C7
:102EE0001BB0F0BCBB46B246A946A046F0BD059457
:102EF0009AE7A04697E7059B5A1C03D01E000127BE
:102F00000893A4E743460133E9D043464646089375
:102F10009CE70C232200FF3302200D490FF0B6F985
:102F200001235B420893DAE77439002078390020E6
:102F3000802E0020004454423C040210740402100D
:102F4000BC040210DC04021004050210183A002030
:102F500008050210F0B50E00FF211C000840154BBB
:102F6000154991B001431868144B15001B6801AA5C
:102F70001F683C23B8473C2806D03C22002101A80A
:102F800019F0F8F9FE230293002E01D0029B336062
:102F9000002D04D00622280003A919F0F1F9002C15
:102FA00005D0122110222000694419F0E9F911B06E
:102FB000F0BDC046743900200044544278390020E6
:102FC000F0B557464E464546DE46FF24E0B59A46E4
:102FD000314E324B04401C433368314F1B6897B06D
:102FE000050089469346984621003C23386807AA85
:102FF000C0473C2806D017B0F0BCBB46B246A94635
:10300000A046F0BD274B28499846239B424605938E
:10301000229B00950493219B3B380393209B0293B2
:103020004B4601933623FF330FF030F94A226B46AB
:103030009B184A461A805B46002B04D0082259464A
:1030400013A819F09DF95346002B05D03A20102201
:103050005146684419F094F9219B229AD9B2209BD9
:103060000902DBB20B43D2B22399120409061343BF
:103070000B431593336821005D6838683C2307AA29
:10308000A8470028B7D0A1234246022007495B0089
:103090000FF0FCF8AFE7C0467839002000445442F6
:1030A000743900203C040210200502109C05021017
:1030B000F0B54746CE46FF2680B51F002F4B064091
:1030C000050018682E4B97B01B6889462D4907AC40
:1030D0009046314322001E683C23B0473C2804D070
:1030E00017B0C0BCB946B046F0BD3B23E35C264AEE
:1030F00005933A23E35C254904933923E35C3B3889
:1031000003933823E35C0293E38D00950193A72397
:103110005B000FF0BBF84B46002B02D04A46E38D14
:1031200013804346002B04D00822404613A919F00F
:1031300027F9002F05D03A2110223800694419F0F0
:103140001FF91E9B002B03D01A003823E35C136089
:103150001F9B002B03D01A003923E35C1360209BD4
:10316000002B03D01A003A23E35C1360219B002B51
:10317000B6D01A003B23E35C1360B1E7743900203A
:1031800078390020004454423C040210C00502106B
:10319000F0B5DE4657464E4645461E4BE0B59A46CC
:1031A00018601D4B1D4F1960994600233B601C4B56
:1031B00006000D0018001022002193B09B4619F064
:1031C000D9F8184B0024984603E053461E684B4636
:1031D0001D6841463C232800366803AA2143B047B6
:1031E0003C2805D15B4601221A553B6801333B6000
:1031F0000134102CE9D13B68012000930A4A9F2337
:103200000A490FF043F813B0F0BCBB46B246A946DA
:10321000A046F0BD7839002074390020183A00200B
:10322000802E0020004454423C0402103806021054
:1032300070B580B282B00BF0B1FC041E20D0114EEC
:10324000114D310028000AF06BFFB3200F22AC3E75
:10325000335C934322006932FF32D17E013B5B181D
:103260001021527E8B4312019B183354B4235B0010
:10327000E35A022200932900044B05480AF040FC5F
:1032800002B070BD4C3D0020503C0020393A001087
:10329000B03B0020F0B50024424F87B080B23C70B4
:1032A0000BF07CFC061E7AD002943F4C06222100D3
:1032B00003A8893119F064F82100122002AD06221A
:1032C0008F31684419F05CF8290038480AF0E2FFB1
:1032D000374B2A7819784A402921625469785A78FC
:1032E0004A402A216254A9789A784A402B21625494
:1032F000E978DA784A402C21625429791A794A40CF
:103300002D21625469795A794A402E216254A97953
:103310009A794A402F216254E979DA794A4030217A
:103320006254297A1A7A4A4031216254697A5A7A67
:103330004A40322162549A7AA97A1E484A4033217F
:103340006254E97ADA7A4A4034216254297B1A7B42
:103350004A4035216254697B5A7B4A403621625487
:10336000A97B9A7BDB7B4A4037216254EA7B2500AC
:10337000534038222935A35429000AF08BFF01233A
:10338000B4223B70210023005200B25A0A48019235
:103390000A4A5733009217312A000AF0C7FB07B0D8
:1033A000F0BDC046E33E0020A03C002060060210B5
:1033B000643B002064060210943B0020913800100A
:1033C000F0B5C646002300B51A4F82B080B23B70FC
:1033D0000BF0E4FB051E28D0174C184821000AF01A
:1033E00059FF2200A823953AD35A154E9846102229
:1033F0000021300018F0BEFF01220C2130000AF03D
:103400005DFE42460E2130000AF058FE0123B42230
:103410003B7023005200AA5A0A4901920A4A0B48FB
:1034200000922F3332000AF081FB02B080BCB84614
:10343000F0BDC046E33E0020353D00206806021086
:10344000843B0020183C0020C9480010943B002019
:10345000F0B5C646002400B5434B86B080B298460E
:103460001C700BF09BFB071E7AD002943F4C062287
:10347000210003A8893118F083FF2100122002AE39
:1034800006228F31684418F07BFF310038480AF07B
:1034900001FF384D33782A7853402922A35472789B
:1034A0006B7853402A22A354B278AB7853402B2236
:1034B000A354F278EB7853402C22A35432792B7921
:1034C00053402D22A35472796B7953402E22A3547A
:1034D000B279AB7953402F22A354F279EB79534060
:1034E0003022A354327A2B7A53403122A354727A79
:1034F0006B7A53403222A354AB7AB27A1E485340BF
:103500003322A354F27AEB7A53403422A354327B11
:103510002B7B53403522A354727B6B7B5340362266
:10352000A354B27BAB7B53403722A354F27BEB7B9B
:103530002600534038222936A35431000AF0AAFE4F
:1035400001234246210013706833FF33FB5A3200D7
:1035500001930A4B0A48009317312B000AF0E6FA50
:1035600006B080BCB846F0BDE33E0020A03C002081
:1035700060060210643B0020640602107D400010CB
:10358000943B0020F0B5CE464746002380B52C4E34
:1035900083B080B233700BF001FB051E4AD00E21C0
:1035A00028480AF077FDA623274C9946E052274B7E
:1035B000274F9846274B00040093D923000C42461E
:1035C000390001905B0001200EF060FEAA23E25A50
:1035D0004B46A821E35A8946534063521E4B39009B
:1035E0000093D923012001925B0042460EF04EFE6B
:1035F0004B46E35A194F984610220021380018F024
:10360000B9FE00220C2138000AF058FD42460E2176
:1036100038000AF053FD0123B42233702300520016
:10362000AA5A0F4901920F4A0F48009295333A0067
:103630000AF07CFA03B0C0BCB946B046F0BDC04643
:10364000E33E0020643B0020A03C00206C060210FA
:103650007406021014F8051088060210843B00203E
:10366000183C0020C5390010943B0020F0B5D64628
:1036700046464F460023C0B52C4E82B080B2337010
:103680000BF08CFA051E4BD00E2129480AF002FDE2
:10369000A623284C9946E052274B284F9846284BA2
:1036A00000040093D923000C4246390001905B00CE
:1036B00001200EF0EBFDA8239A464B465246E35AF2
:1036C000A25A39005340AA22A35201931D4B4246ED
:1036D0000093D92301205B000EF0D8FD5346E35A36
:1036E000194F984610220021380018F043FE00229E
:1036F0000C2138000AF0E2FC42460E2138000AF0A4
:10370000DDFC0123B422337023005200AA5A0F4972
:1037100001920F4A0F48009295333A000AF006FAD8
:1037200002B0E0BCBA46B146A846F0BDE33E002078
:10373000643B0020A03C00206C06021074060210BE
:1037400014F8051088060210843B0020183C002065
:10375000C1330010943B002000220D4B10B50D49E1
:103760000D481A700AF096FD02220C4B1A700C4B91
:103770001B78002B0AD00B4C20000AF017FC20000D
:1037800000210AF0FFFB20000AF008FC10BDC04633
:10379000E33E0020383C002004050210D43E002007
:1037A000E53E0020583C002000220D4B10B50D498D
:1037B0000D481A700AF06EFD03220C4B1A700C4B68
:1037C0001B78002B0AD00B4C20000AF0EFFB2000E6
:1037D00000210AF0D7FB20000AF0E0FB10BDC04634
:1037E000E33E0020083C002090060210D43E00205A
:1037F000E53E0020583C002010B580B20BF0CEF919
:10380000002807D00B236930FF304375084B1B7825
:10381000002B00D110BD074C20000AF0C7FB200090
:1038200000210AF0AFFB20000AF0B8FBF2E7C04627
:10383000E53E0020583C002070B500250E4C0F4995
:103840000F4B03220D31E01C1D7018F099FD0D4B3C
:1038500020001D700EF060FA0B4B1B78002B0AD075
:103860000A4C20000AF0A2FB200000210AF08AFB8B
:1038700020000AF093FB70BD483C0020643B002010
:10388000E33E0020DE3E0020E53E0020583C0020C4
:103890000022104B10B580B21A700BF07FF9041E95
:1038A0000BD00D490D480AF0F5FC0F236934FF34A5
:1038B00063750B4B1B78002B00D110BD094C200009
:1038C0000AF074FB200000210AF05CFB20000AF0E3
:1038D00065FBF2E7E33E0020F73C0020940602106F
:1038E000E53E0020583C002010B5144B1A78032AFE
:1038F00018D13F23124908780340402003430B703E
:10390000104B1A70104B1B78002B0AD00F4C200064
:103910000AF04CFB200000210AF034FB20000AF0E2
:103920003DFB10BD3F230648027813400022037080
:10393000044B1A700EF0F0F9E4E7C046D53E0020C3
:10394000483C0020DE3E0020E53E0020583C0020A0
:103950000022174B70B580B21A700BF01FF90028C7
:1039600016D06930FF30C37E04000F2B1DD8102203
:10397000104D00212800D21A18F0FCFC29000E4836
:103980000AF088FC262363750C4B1B78002B00D1B2
:1039900070BD0B4C20000AF009FB200000210AF04A
:1039A000F1FA20000AF0FAFAF2E7024DE6E7C04623
:1039B000E33E0020353D002098060210E53E002041
:1039C000583C00200022174B70B580B21A700BF0E3
:1039D000E5F8002816D06930FF30C37E04000F2BB5
:1039E0001DD81022104D00212800D21A18F0C2FC58
:1039F00029000E480AF04EFC282363750C4B1B78F7
:103A0000002B00D170BD0B4C20000AF0CFFA200033
:103A100000210AF0B7FA20000AF0C0FAF2E7024DDE
:103A2000E6E7C046E33E0020353D00206806021070
:103A3000E53E0020583C002010B580B282B00BF06B
:103A4000ADF8041E1AD0002113480AF023FBA82366
:103A5000124A1349D05203041B0C0193114B01204D
:103A60000093D923104A5B000EF010FC1423693434
:103A7000FF3463750D4B1B78002B01D102B010BDD4
:103A80000B4C20000AF092FA200000210AF07AFA8A
:103A900020000AF083FAF1E7503C0020A03C00200F
:103AA000740602109C0602106C060210E53E00200F
:103AB000583C002030B53423012287B06946174CAA
:103AC000C254EE33E55C164B02880B806846022137
:103AD0000AF0CAFA20006B4624301D71591DFF30D0
:103AE0000AF052FB0B236A46012104200EF096FBDC
:103AF0000C4903A80AF092F808E003A80AF0AAF813
:103B00000B2344686A4600210420A04703A80AF05A
:103B10008BF80028F1D107B030BDC046A03C002092
:103B2000D4090000D03B0020F0B53423150000225A
:103B300089B00E006946194CC254EE33E75C184B4D
:103B400002880B8204A802210AF08EFA20006B463C
:103B5000152124301F756944FF300AF015FB6B46B0
:103B60000121DE761D7704200D2304AA0EF056FBFA
:103B70000C4901A80AF052F808E001A80AF06AF816
:103B80000D2344680021042004AAA04701A80AF0DC
:103B90004BF80028F1D109B0F0BDC046A03C002090
:103BA000D50B0000D03B0020012370B51A4D86B024
:103BB0002B746B46C67919700A2369460400028883
:103BC0004B70684602210AF04FFA6B4620001E71C6
:103BD000591D08300AF0D8FA2823EB5C01215A1E3F
:103BE00093416A460420D3720C230EF017FB0B4955
:103BF00003A80AF013F808E003A80AF02BF80C2336
:103C000044686A4600210420A04703A80AF00CF883
:103C10000028F1D106B070BDA03C0020D03B0020B0
:103C2000002230B51C4B1D4C83B01A7000280FD0F9
:103C30001B4B220018681B4B1B491B685D68102337
:103C4000A8471A4B00901A4A01201A490EF01EFB91
:103C5000210019480AF01EFB0123184C2370184B51
:103C60001B78002B10D1174B1B78002B0AD0164C59
:103C700020000AF09BF9200000210AF083F92000BF
:103C80000AF08CF903B030BD104911480AF002FB6C
:103C900002232370E7E7C046E83E0020283C0020CE
:103CA000683C00206C3C002052494D53420E0000FD
:103CB0006C060210A0060210D4060210D43E0020AA
:103CC000EB3E0020E53E0020583C0020383C002020
:103CD000D8060210F0B5C646040000B5214F88B0E2
:103CE0000E0038000C210AF0DBF9E37969469846AA
:103CF0006B461E740E23050022884B7404A8022113
:103D00000AF0B2F942466B46200015211A75694443
:103D100008300AF039FA7B7C04A85A1E93416A469F
:103D20000C21D3762A000AF0A5F9102301210420E2
:103D300004AA0EF073FA0C4901A809F06FFF08E01D
:103D400001A809F087FF102344680021042004AA79
:103D5000A04701A809F068FF0028F1D108B080BC95
:103D6000B846F0BDB73C0020D03B002070B580B213
:103D70000AF014FF041E15D0174D10220021280050
:103D800018F0F8FA154B1A68531C18D00C212800AB
:103D90000AF09AF922236934FF346375104B1B78BB
:103DA000002B00D170BD0F4C20000AF0FFF820005E
:103DB00000210AF0E7F820000AF0F0F8F2E700210D
:103DC00009480AF043F9094B0203120B9A42DDD964
:103DD000074B9C466244D9E7B73C0020D43B002007
:103DE000E53E0020583C0020503C00203E420F00A1
:103DF000C1BDF0FF3523012270B50400C254006B31
:103E00008AB0002832DA2100E57902AE06223000BD
:103E10000831019518F0B4FA6946194B22880B82D3
:103E200004A802210AF020F96B46152130001D7507
:103E300069440AF0A9F90B230121042004AA0EF019
:103E4000EDF9104907A809F0E9FE08E007A809F014
:103E500001FF0B2344680021042004AAA04707A8FF
:103E600009F0E2FE0028F1D10AB070BD02AE0023D5
:103E7000320001A9FFF76EF8019BDDB2CCE7C04626
:103E8000D6090000D03B002035230022F0B5040005
:103E9000C254006B0D008BB0002834DA2100E679A3
:103EA00002AF062238000831019618F069FA694617
:103EB000194B22880B8204A802210AF0D5F86B4620
:103EC000152138001E7569440AF05EF96B46012120
:103ED000DD7604200C2304AA0EF0A0F90F4907A8F0
:103EE00009F09CFE08E007A809F0B4FE0C23446822
:103EF0000021042004AAA04707A809F095FE002885
:103F0000F1D10BB0F0BD02AF00233A0001A9FFF7D9
:103F100021F8019BDEB2CAE7D70A0000D03B00209F
:103F200030B5184D83B02A000120174B17490EF009
:103F3000ADF9174B174C196820000AF023F8200040
:103F40000AF02CF8144C2A0023780120009313491E
:103F5000134B0EF09BF92378002B05D1013323700E
:103F6000104B1B78002B01D103B030BD0E4C20004C
:103F70000AF01CF8200000210AF004F820000AF0E2
:103F80000DF8F1E76C060210CA020000DC06021010
:103F9000A82E0020982E0020DE3E002004070210EC
:103FA000C1020000E53E0020583C00201A23F0B575
:103FB00043751A33C25C05008BB0002A06D12B88EA
:103FC000274D2C889C423DD00BB0F0BD00266946A1
:103FD000244CC654EE33E75C234B02880B8306A8BF
:103FE00002210AF041F820006B461D2124301F7782
:103FF0006944FF300AF0C8F86B4623229B181E70F4
:104000006B4601329B181E7001210D23042006AA65
:104010000EF004F9154903A809F000FE08E003A812
:1040200009F018FE0D2344680021042006AAA047C9
:1040300003A809F0F9FD0028F1D12B88084D2C8840
:104040009C42C1D1074809F0B1FF01235B422B809C
:104050000120074B074A084900940EF017F9B3E70F
:10406000D2110020A03C0020D50B0000D03B002046
:10407000410400006C060210300702100022184BA9
:1040800070B580B21A700AF089FD041E13D0154D68
:10409000154829000AF0FEF81022290013481BF0E9
:1040A0005BFD6934FF34002806D110236375104B83
:1040B0001B78002B08D170BD0423E375033B6375A7
:1040C0000B4B1B78002BF6D00A4C200009F06EFF3A
:1040D0002000002109F056FF200009F05FFFEAE709
:1040E000E33E0020643B002094060210173D0020B0
:1040F000E53E0020583C0020F0B5C646002300B540
:104100002D4D2E4C2E4F2F4E82B02B7000280ED0EE
:10411000336822005B682C49984638681023C047F2
:104120002A4B00902A4A01202A490EF0AFF82100BC
:1041300029480AF0AFF83368284C1E682200102383
:1041400038682749B04710280CD0012310222B7063
:104150002100244B2448009409F0D2FC02B080BC1A
:10416000B846F0BD214B1A4A21490F380EF08EF89F
:10417000002321001F482B700AF08CF801231E4CED
:1041800023701E4B1B78002B0FD11D4B1B78002B6F
:10419000E4D01C4C200009F009FF2000002109F0A8
:1041A000F1FE200009F0FAFED8E7174917480AF097
:1041B00071F802232370E8E7E83E0020183C002055
:1041C000683C00206C3C002052454D53550E0000C9
:1041D0006C0602106407021098070210283C0020A9
:1041E00052494D53213C0010B03B00205E0E0000B0
:1041F0009C070210D4060210D43E0020EB3E0020A3
:10420000E53E0020583C0020383C0020D806021033
:10421000F0B547460024CE46854980B50F680C604E
:104220000121844D844B2A7849421E6895B02C7038
:104230001960022A34D00025012856D16A467F4BE6
:104240000BA81C787E4B022193852A0009F00CFFF5
:1042500030226B4631219B181C706944794809F063
:1042600093FF0FAC0B23012104200BAA0DF0D6FF06
:104270002000754909F0D2FC08E0200009F0EAFCB2
:104280000B234568002104200BAAA847200009F051
:10429000CBFC0028F1D115B0C0BCB946B046F0BD8A
:1042A0003D8801285DD00323BB75684B01209946EA
:1042B00067494A46674B3E6300960DF0E7FF386B4F
:1042C0000BAB002200210394029401940094FEF7AA
:1042D000EFFE10210BA809F065FF3B79002B04D0FD
:1042E0007B7D1D2B59D1013B7B75544B30041F78CE
:1042F00006AA05A90023000CFEF72CFE564B0FACB6
:104300002A0023802000022109F0AEFE41214D4801
:104310006944277109F038FF059B12A9E37206A8CA
:1043200009F032FF2000B2B2122109F09DFE1423E1
:104330002200012104200DF071FF434908A809F073
:104340006DFC08E008A809F085FC142345682200EC
:1043500000210420A84708A809F066FC0028F1D134
:1043600099E70423BB753B79002B00D166E77B7D81
:104370001D2B28D0394ABB791278134300D15DE751
:104380000023BB711B337B751933FB5C002B00D002
:1043900054E73800FFF78EFB50E7212BA3D0012311
:1043A0002E4A5840C3B298461278BB7913430DD1B8
:1043B00042460293019200934A460120284B294924
:1043C0000DF064FF91E701337B75D3E70123BC71E6
:1043D000029343464A4601930120214B2149009410
:1043E0000DF054FF1B237B754346002B17D035235C
:1043F000FB5C002B02D13800FFF7FCFC1A4B1B784A
:10440000002B00D171E7194C200009F0CFFD2000EE
:10441000002109F0B7FD200009F0C0FD65E7342355
:10442000FB5C002BEAD13800FFF744FBE6E7C0460F
:10443000583B0020E23E0020603B0020E13E00208F
:10444000CE090000503B0020D03B00206C0602103B
:10445000B007021017050000CF120000EA3E00204E
:104460002E050000E0070210E53E0020583C002029
:1044700000221B4B10B51A701A4B1B4A1900D01C96
:104480005B7BD2780D319A4208D0184A1368013309
:104490001360174B1B78002B15D110BD42784B7859
:1044A0009A42F2D182788B789A42EED1114B012058
:1044B000114A12490DF0EAFE0020FFF7A9FE0C4B4D
:1044C0001B78002BE9D00E4C200009F06FFD200076
:1044D000002109F057FD200009F060FDDDE7C0462E
:1044E000E33E0020643B0020503B0020603B002066
:1044F000E53E0020970D00006C06021038080210FF
:10450000583C0020F0B55746DE464E464546E0B5DD
:10451000D84F93B005907B7D5B0716D44323FA5C9C
:10452000073BFB5C1340DB0700D51CE1D24B9846F0
:1045300042460120D14BD2490DF0A8FE13B0F0BC89
:10454000BB46B246A946A046F0BD3E002436002434
:10455000FE25FF36FEF706FC844216DA0023200013
:104560000AA90DAA0A95FEF7F5FC0A9B002B07D1B4
:10457000062231000DA81BF0EFFA002800D1CEE092
:104580000134FEF7EFFB8442E8DBBB4B98463C234B
:10459000FA5C0733FB5C1340DB07C9D57B7D002445
:1045A0005B0700D4E1E0B74B9A4621235B425344BA
:1045B0009B46FEF7D7FB844200DBDBE0FE2308933B
:1045C00008AB99460DAD0AAE2B00320049462000DB
:1045D000FEF7C0FC089BFE2B00D19EE00622514650
:1045E00030001BF0B9FA002800D096E0102259469E
:1045F00028001BF0B1FA002800D08EE0A249424604
:10460000A24B01300DF042FE52469123243AFF3A6C
:104610005B00D35C50469B4609F02AFF5B46019045
:104620000093424601209A4B9A490DF02FFE059BBC
:1046300020041B884A469A4691235B00FB5C000CD1
:104640009B4607A90023FEF785FC934B52460221A7
:1046500028002B8009F008FD5B4638002B7102AB67
:104660009C46312124306144FF3009F08DFD079BC9
:104670004846EB7210A909F087FD12212800A2B26A
:1046800009F0F2FC14232A00012104200DF0C6FDDC
:104690003000824909F0C2FAA14608E0300009F072
:1046A000D9FA142344682A0000210420A0473000CE
:1046B00009F0BAFA0028F1D14C460323059A937504
:1046C00014632822BE5C002E00D0AFE07A7D134038
:1046D000032B00D032E7059D42466B7E01200193FB
:1046E000EB7E6F490093BE23DB000DF0CFFDE82188
:1046F0002320795A0396285C2E00033845426841EE
:104700003B003A000290707EF2330190F07EEA3274
:1047100000904846FEF754FC10E7013449E70022B8
:10472000002120000DABFEF715FC310010222139CD
:104730000DA81BF011FA002800D126E7059D2800DE
:10474000083009F095FE4C4B56499846EB794246A5
:1047500001930090544B01200DF098FD2004000CB3
:10476000FEF702FB13E7444B9846102200214F4806
:1047700017F000FE2423FF339B469124BB446400C2
:1047800058463D5D09F074FE42460190404B0120C1
:10479000404900950DF07AFD385D00282FD1444B3B
:1047A00000249A46FEF7DEFA844225DAFE230A93B5
:1047B0000AAB99460DAD00232A0049462000FEF7BA
:1047C000C9FB0A9EFE2E15D0280009F051FE394B78
:1047D0000290424651460120019600940DF056FD8C
:1047E0000A9B002B06D10622594628001BF0B4F97B
:1047F000002811D00134D5E791235B00F85C2B4AE7
:1048000011002131FEF7D2FA041E00DA96E608AB59
:1048100099460DAD0AAE0AE7274B424627490130BB
:104820000DF034FD08AB4E46994600E7059E424622
:10483000737E23490193F37E01300093214B0DF0E9
:1048400025FD00210822280017F094FD0122039283
:104850002232B25C3B00033A51424A410292727EDC
:1048600000210192F27E4846009295332A00FEF71D
:10487000A7FB63E6A03C00206C0602103706000090
:10488000140A0210C33D0020CC080210A20500004B
:10489000AC050000F8080210D3120000D03B002045
:1048A000CC090210740802101E060000A23D002070
:1048B00024090210B5050000B70500005C090210CC
:1048C00094090210E605000070B500262C4D82B058
:1048D00080B22E700AF062F9041E21D02E70294D8C
:1048E00029482900C43D09F0D5FCAB7C002B19D127
:1048F0002A7D6B7D13409A4219D018236934FF3406
:104900006375224B1B78002B0AD0214C200009F044
:104910004DFB2000002109F035FB200009F03EFB93
:1049200002B070BD17236934FF346375E9E72500D1
:104930006935FF352800FFF7E5FD1A236B75230065
:104940009D33FF331B78002B14D1B423114D5B0032
:10495000E35A2C889C42D4D10F4809F027FB01234D
:104960005B422B8001200D4B0D4A0E4900940DF047
:104970008DFCC6E7002200212800FFF7D5F8E4E708
:10498000E33E0020643D0020480A0210E53E00207E
:10499000583C0020D2110020A03C0020410400001F
:1049A0006C06021030070210F0B5DE4657464E4640
:1049B0004546E0B595B00DF0F7F9022806D015B0E0
:1049C000F0BCBB46B246A946A046F0BD0AF074FA58
:1049D0000028F4D0C44B1B78002BF0D1C34B1C78BB
:1049E000012C25D0022C00D196E0C14B1F78012F5D
:1049F00000D1E8E0032F25D1BE4E3578002D21D11E
:104A0000BD4C0D220021200017F0B4FC20003A001C
:104A1000BA490D3017F0B4FC01233370B84B2200B3
:104A20000093B849B84BB948019509F07FF8C6E73B
:104A3000B04E3578002D00D134E1AD4B1A78012A03
:104A400000D1C0E0B24F3B78002B00D106E1B14B62
:104A5000B14D9846B14FFEF785F92E6886422BDAA4
:104A6000FE230FAC08933000230009AA08A9FEF723
:104A700071FA089BFE2B4BD02E68FEF773F93A00B3
:104A8000A74B01904146012000960DF0FFFBA54B7E
:104A9000089A1B78934200D1A0E0002B38D0102157
:104AA000200009F07FFB002832D1924B0600984687
:104AB0001B78012B00D0A8E0FEF754F92B68984230
:104AC00000DCAAE10AF0F8F9002800D177E70FAC82
:104AD00020000AF059F8944BB42798467F00200034
:104AE00009F0A2F8002800D1E9E1200009F0B2F8AD
:104AF00006006936FF36737D0500012B32D01E2B70
:104B0000EDD11A237375C15B88480AF065FC56E73E
:104B10002B6801332B609EE7764D2C78002C8CD1CE
:104B2000834B01207D4A83490DF0B0FB724E102269
:104B30000021300017F01EFC300000220C2109F08B
:104B4000BDFA300003220E2109F0B8FA01232B70C0
:104B5000794B320000937949794B6C48019408F005
:104B6000E5FF2CE705230CAA1370F37D537033790E
:104B7000591E8B410E215B428B432933737571881B
:104B80000223C05B0DF022FF2B009D33FF331B7807
:104B9000002B04D005213000F27DFEF7C5FF424610
:104BA000EB5B15889D429AD1664809F0FFF9012315
:104BB00042465B4213800120634B584A634900958B
:104BC0000DF064FB8BE702221A7000234B4900931F
:104BD0005F48604B043208F093FFF0E65E4A0999A3
:104BE00010680591814200D057E704A9098B92888B
:104BF000914200D051E73A000120584B58490DF03E
:104C000045FB0020FFF704FB56E73A00554B012017
:104C100055490DF03BFB2100544809F03BFB544D36
:104C20002B0007CC07C32268334C1A6000210D22E9
:104C3000200017F09FFB2000032247490D3017F09A
:104C40009FFB4246012313704A4B22000093290028
:104C50002D4B2E48019608F069FFB0E60CAC200001
:104C600009F092FF09E0200008F0F4FF0600693621
:104C7000FF36B37D012B00D186E0200008F0D4FF81
:104C80000028F0D13B78002B00D0E0E63A4C200021
:104C900008F084FF061E00D1C9E03B78002B00D14C
:104CA00010E7D4E6354B01201C4A35490DF0EEFAE9
:104CB000114F10220021380017F05CFB3800002251
:104CC0000C2109F0FBF9380001220E2109F0F6F958
:104CD0002C4B34703A00009318490A4B0B4801954D
:104CE00008F024FF6BE6C046E83E0020D43E0020DA
:104CF000DE3E0020E33E0020843B0020483C0020B4
:104D000039380010383C0020643B0020943B0020E0
:104D1000E23E0020A00A0210603B00206C06021058
:104D2000B6080000E13E0020D21100200842021027
:104D300067080000840A0210A9370010283C0020F0
:104D4000083C0020A03C0020410400003007021075
:104D5000B03B0020E9380010503B0020B9080000AB
:104D6000CC0A0210CC080000080B0210D806021072
:104D7000743B0020714400105C3B00205C08000084
:104D8000680A021059370010F37906229846B423B6
:104D90005B00C35A7130FF3004000100AE489946F1
:104DA00017F0EEFA4246AD4BAD4D1A7000232B6062
:104DB00002333B70AB4B09AD1E60AB4B4A46022140
:104DC00028002B8009F050F943462B7104AB9C4618
:104DD00019212000614409F0D7F90FAC0B232A00F8
:104DE000012104200DF01AFA2000A049B04608F075
:104DF00015FF2E0008E0200008F02CFF0B2345686B
:104E0000320000210420A847200008F00DFF0028F0
:104E1000F1D146460223B37534E70120944B954AFD
:104E200095490DF033FA0120FFF7F2F94AE62368BD
:104E300020009846190008F0D7FE43469B7A0622C8
:104E4000994643461C1D2100834817F099FA4A46AB
:104E5000824B834D1A7001233B70824B2E601E6083
:104E6000814B09AD002228002B80022109F0FCF8BB
:104E70004B462B7104AB9C4619212000614409F07C
:104E800083F90FAC0B232A00012104200DF0C6F991
:104E90002000764908F0C2FE08E0200008F0DAFEA3
:104EA0000B2346682A0000210420B047200008F0A8
:104EB000BBFE0028F1D1404608F002FFEDE66F4B43
:104EC0006F4D9B46200009F05FFE6E4E01E01A2BED
:104ED00012D82888B04226D1200008F0A5FE00286C
:104EE0001DD0200008F0B6FE02006932FF32537D6B
:104EF0001C2BECD9202BECD1B4214900415A29803C
:104F000010795A46002800D15F4A0293019200911D
:104F100001205E4B574A5E490DF0B8F9D5E7288865
:104F2000B04200D14BE509F039FE071E01D100F077
:104F30002AFDB4235B00984680444346288859885C
:104F40000DF088FA002801D100F0ACFD514E737CC1
:104F5000002B01D000F0B4FD464B0120994643469A
:104F60005B7D4A4600934C494C4B0DF08FF943460C
:104F70005B7D0B3BDBB21D2B27D8494A9B00D358E6
:104F80009F460B232370474B42461B7863701F23B9
:104F90005375B4235B00F85A673B5188FF3B2200EE
:104FA0000DF014FD300009F001F84146300008F022
:104FB000F1FF3D4B3000190008F0B8FF30003B49CD
:104FC00008F0E0FF300008F0E9FF2A882D4B9A42F4
:104FD00000D177E7F3E4364B1D68002D09D0434636
:104FE0003A00D979B42371325B00F85AFF32314B61
:104FF000A847B4235B00F85A994609F0CFFD9536CF
:10500000050010223100173017F0BAF901232100F2
:105010002B85300009F096F81923424653754B460C
:105020002200F95A24480AF0D7F9C8E4B4235B00F7
:10503000F85A994609F0B2FD953605001022310064
:10504000173017F09DF9012321002B85300009F05E
:1050500079F81323E1E7C046503B0020E13E0020F1
:10506000603B0020583B0020CD090000D03B0020D1
:10507000D70800006C060210300B0210500A021014
:10508000D2110020FFFF00005C0A0210540900004A
:10509000540B0210A03C0020F80B0210EA0A00009A
:1050A000A00D0210E43E0020756000103075000075
:1050B000D83B0020353D0020104202100023A522DD
:1050C000B35442467374F375B361F3613362736230
:1050D000927D032A01D100F026FD4346DB793000A2
:1050E0001A00059391235B00F2544E339A46243004
:1050F000BA4406225146FF3017F042F9E54B1B68CF
:10510000002B01D100F0C9FC32005146173205983E
:105110009847C3B21A0005932723F2544346DA791D
:105120008723F254434630009A7B88235146F25439
:105130008930062217F024F9390030007831062230
:10514000FF318F3017F01CF92022D34B9A461B7881
:105150009343D24A1078D24A079011784122B15431
:1051600005990132B1540132B35444233900F0544B
:10517000300085313C3A3930FF3117F001F93D23D9
:10518000F25CC84B1B789A4201DA00F02BFC3F23FB
:10519000F15C013B0591F15C079B0691934200DDB8
:1051A00013004246D376002B01D100F01EFC0023F1
:1051B0002822B375B35401204A460093BA49BB4B29
:1051C0000DF064F82822B35C002B01D100F05BFCE9
:1051D0003B231A32B25CF35C13435A1E9341DBB299
:1051E000002B01D000F0DEFC3C224321B25C715C5C
:1051F0000A43520701D400F0F0FC0022F375B361BA
:10520000F3613362B3842623F2541433F35C042B2A
:1052100012D84122B25C042A0ED805215143A44879
:10522000C018415C0120B1750291019200934A4679
:10523000A04BA1490DF02AF8B37D4A4600939B2369
:1052400001209E49DB000DF021F8B27D042A01D136
:1052500000F0A1FC00D9A0E3994B1B78002A00D1F3
:105260006DE35B07DB0F002B00D16BE30023022112
:105270000698737501330340013B8B4303330142AE
:1052800001D00A310B430699490701D510210B4380
:1052900033750123022105980340013B8B430333FF
:1052A000014201D00A310B430599490701D510216C
:1052B0000B43B3740023F374531E9A4143463000EA
:1052C0005A7608F073FE4146300008F063FE7D4BCD
:1052D00030001900994608F029FE30007A4908F09C
:1052E00051FE300008F05AFEB37D022B00D0B5E22B
:1052F000B4235B00FB5A082200937449744B754831
:1053000008F0FEFB61E6744B9A461B78012B00D136
:105310005BE6AA25735B4A46012070490093704BF7
:105320000CF0B4FF0024A5231022F45421007E3B8E
:105330006C48F454747417F01DF8390030008F3144
:105340000822FF31AC3017F01BF843469B8C0F222C
:105350007353B32301204146F35C8C761A401B093A
:1053600003400132CA764B76019300925E4B4A4667
:105370005E490CF08BFF3B009E33FF331B78A3424A
:1053800002D14046FEF736FD594C0822002120008C
:1053900016F0F0FF2300AC36083306CE06C34246B3
:1053A000272353755246263B13706833FF33FB5A4D
:1053B000220001934F4B504900935048504B08F046
:1053C000B5FBFFF7FCFAB37C002B00D00FE3327D76
:1053D000737D13409A4200D1D5E31823424653759A
:1053E000F3E53D4B99461B78012B00D1EDE5404B91
:1053F00008229A460021180016F0BCFF5346AC362E
:10540000083306CE06C34246152353754A46143B5D
:1054100013706833FF33FB5A52460193394B3649B8
:1054200000933648364B08F081FBCEE52A4B9A466E
:105430001B78012B00D1C8E5334E3448310008F009
:1054400029FF31003248203108F024FF284B310079
:105450001800082228310830994616F091FF3100D3
:1054600008224846083116F08BFF42461223537536
:105470005246113B1370B422330031005200BA5A25
:105480001E480192234A4E33009230394A4608F0B2
:105490004DFB9AE5DC3B0020E43E0020E63E002088
:1054A000D4110020E73E00203C0C02104B0300000A
:1054B000101202107E030000AC0C0210F40C02105B
:1054C000E03E00207560001030750000503C002068
:1054D0006D3D0010B03B0020E33E0020280D02107F
:1054E000260C0000B73C0020510800005C0D0210A3
:1054F000843B002085350010083C0020943B0020B0
:10550000643B00206D360010E73C0020200D0210A7
:10551000240D0210513900100423237004AB9C4663
:105520002D21BF4E6144300008F00CFE4246252379
:105530005375B4235B00F85A583B5188FF3B220057
:10554000473E0DF043FA300008F030FD2AE5032312
:10555000237004AB9C462D21B24D6144280008F015
:10556000F1FD424624235375B4235B00F85A583B9F
:10557000FF3B573D518822000DF028FA280008F023
:1055800015FD280008F012FD4146280008F002FD34
:105590002800A54908F0CAFC2800A44908F0F2FC3C
:1055A000280008F0FBFCFFF70AFAA14B99461B788C
:1055B000012B00D109E58723F35C30000593882394
:1055C000F25C21004030924608F09AFD04AB9C4604
:1055D000300033213930614408F092FD5246059B7A
:1055E000A273E3732100934808F054FE31009248FF
:1055F000673108F04FFE914B22789A466723F35C9F
:10560000514653405246137068236278F35C53400E
:10561000524653706922A378B25C5340524693704D
:105620006A23E278F35C53405246D3706B232279AD
:10563000F35C5340524613716C236279F35C534020
:10564000524653716D23A279F35C534052469371D5
:105650006E23E279F35C53405246D3716F23227A72
:10566000F35C5340524613727023627AF35C5340EA
:10567000524653727123F35CA27A714853405246EA
:1056800093727223E27AF35C53405246D3727323CF
:10569000227BF35C5340524613737423627BF35CAA
:1056A0005340524653737523A27BF35C53405246DA
:1056B00093737623E27BF35C53405246D37308F036
:1056C000E9FD0E23424653754A4631000D3B1370E7
:1056D0006833FF33FB5A173101935A4B00935246FC
:1056E000594B5A4808F022FA6FE4514B99461B78FF
:1056F000012B00D169E48723F35C300005938823F4
:10570000F25C21004030924608F0FAFC04AB9C4663
:10571000300033213930614408F0F2FC5246059BD9
:10572000A273E3732100434808F0B4FD31004248FE
:10573000473108F0AFFD414B22789A464723F35C8E
:10574000514653405246137048226378B25C53402E
:10575000524653704923A278F35C534052469370EB
:105760004A22E378B25C53405246D3704B222379ED
:10577000B25C5340524613714C236279F35C534040
:10578000524653714D23A279F35C534052469371B4
:105790004E23E279F35C53405246D3714F23227A71
:1057A000F35C5340524613725022637AB25C53400A
:1057B000524653725123F35CA27A21485340524619
:1057C00093725223E27AF35C53405246D3725323CE
:1057D000227BF35C5340524613735423627BF35C89
:1057E0005340524653735523A27BF35C53405246B9
:1057F00093735623E27BF35C53405246D37308F015
:1058000049FD0C23424653754A4631000B3B137049
:105810006833FF33FB5A173101930D4B5EE7C046E7
:10582000E73C0020F73C0020756000103075000058
:10583000E33E0020180D0210A0470210843B002018
:105840001C0D021051340010643B0020943B0020DA
:1058500095320010E54B9A46E54B994640230222CB
:10586000F254534601201B783C32B15C03400233B2
:1058700019400732B154063AB25C0C241340462258
:10588000B3540022727502000A40084201D003227C
:105890000334890700D52200012132750A000C204B
:1058A0001A40194201D0032203309B0700D50200A1
:1058B0000023B274F3742833F35CCE4C5A1E934128
:1058C0005A420F231340424623335375B4235B00DF
:1058D000F85A623BFF3B51882200403C0DF076F8BD
:1058E000200008F063FB200008F060FB4146200028
:1058F00008F050FB4946200008F018FB9D372000B7
:10590000BD4908F03FFBFF37200008F047FB3B781C
:10591000002B02D14046FEF7CDF82823F35C002B84
:1059200042D0B37D002B01D0FFF749F83374012337
:105930003B70C8214046FEF737F9FFF740F8DB0718
:1059400000D593E403269D37FF373B78002B02D127
:105950004046FEF7AFF843464246DE7501235375D5
:10596000A64B1B78002B01D1FFF72FFBA44E300074
:1059700008F01CFB3000002108F004FB300008F0A8
:105980000DFBFFF722FB2B88012000939D4A9E4BC5
:105990009E490CF07BFCFFF712F8052AD2D19C4BF4
:1059A0001B789B07DB0F5EE4337401233B70B37DF0
:1059B000042B01D9FFF703F8964A9B00D3589F4662
:1059C000CB214046FEF7F0F8FEF7F9FFCC21404628
:1059D000FEF780F9FEF7F3FFC9214046FEF77AF99A
:1059E000FEF7EDFF00234246D3760626ABE7012102
:1059F0000B4200D0E4E00222134200D022E1042254
:105A0000190011408946134200D057E10822134281
:105A100000D031E11022134201D1FEF7D0FF9343B1
:105A2000B374F37C2D211A430A23237004AB9C46E4
:105A30007948F274614408F085FB43465988B423E1
:105A40005B00F85A583B2200FF3B0CF0BFFF3000D0
:105A500008F0ACFA300008F0A9FA4146300008F02E
:105A600099FA634B3000190008F060FA300062497F
:105A700008F088FA300008F091FAB37C002B00D1CE
:105A8000A5E4FEF79CFF3B23F25C0733F35C134075
:105A90005A1E9341DBB2FFF7A3FB2733F35C059358
:105AA000FFF73CFBAD230120564A5C491B010CF07B
:105AB000EDFB4346288859880CF0AEFCFEF77FFFCB
:105AC0005A099146190001221F2011408C461840A6
:105AD000134200D020E14308134200D01AE18308AA
